{
    "_format": "hh-sol-artifact-1",
    "contractName": "DappTools",
    "sourceName": "contracts/DappTools.sol",
    "abi": [
        {
            "inputs": [
                {
                    "internalType": "uint256",
                    "name": "fees_",
                    "type": "uint256"
                }
            ],
            "stateMutability": "nonpayable",
            "type": "constructor"
        },
        {
            "anonymous": false,
            "inputs": [
                {
                    "indexed": true,
                    "internalType": "address",
                    "name": "previousOwner",
                    "type": "address"
                },
                {
                    "indexed": true,
                    "internalType": "address",
                    "name": "newOwner",
                    "type": "address"
                }
            ],
            "name": "OwnershipTransferred",
            "type": "event"
        },
        {
            "anonymous": false,
            "inputs": [
                {
                    "indexed": true,
                    "internalType": "address",
                    "name": "contract_address",
                    "type": "address"
                },
                {
                    "indexed": true,
                    "internalType": "address",
                    "name": "deployer",
                    "type": "address"
                },
                {
                    "indexed": false,
                    "internalType": "enum Token",
                    "name": "kind",
                    "type": "uint8"
                }
            ],
            "name": "RegisterToken",
            "type": "event"
        },
        {
            "inputs": [],
            "name": "fees",
            "outputs": [
                {
                    "internalType": "uint256",
                    "name": "",
                    "type": "uint256"
                }
            ],
            "stateMutability": "view",
            "type": "function"
        },
        {
            "inputs": [],
            "name": "owner",
            "outputs": [
                {
                    "internalType": "address",
                    "name": "",
                    "type": "address"
                }
            ],
            "stateMutability": "view",
            "type": "function"
        },
        {
            "inputs": [
                {
                    "internalType": "address",
                    "name": "contract_address",
                    "type": "address"
                },
                {
                    "internalType": "address",
                    "name": "deployer",
                    "type": "address"
                },
                {
                    "internalType": "enum Token",
                    "name": "kind",
                    "type": "uint8"
                }
            ],
            "name": "register",
            "outputs": [
                {
                    "internalType": "bool",
                    "name": "",
                    "type": "bool"
                }
            ],
            "stateMutability": "payable",
            "type": "function"
        },
        {
            "inputs": [],
            "name": "renounceOwnership",
            "outputs": [],
            "stateMutability": "nonpayable",
            "type": "function"
        },
        {
            "inputs": [
                {
                    "internalType": "address",
                    "name": "newOwner",
                    "type": "address"
                }
            ],
            "name": "transferOwnership",
            "outputs": [],
            "stateMutability": "nonpayable",
            "type": "function"
        },
        {
            "inputs": [
                {
                    "internalType": "uint256",
                    "name": "fees_",
                    "type": "uint256"
                }
            ],
            "name": "updateFees",
            "outputs": [],
            "stateMutability": "nonpayable",
            "type": "function"
        },
        {
            "inputs": [],
            "name": "withdrawFees",
            "outputs": [],
            "stateMutability": "payable",
            "type": "function"
        }
    ],
    "bytecode": "0x608060405234801561001057600080fd5b50604051610dba380380610dba8339818101604052810190610032919061013c565b61004e61004361005b60201b60201c565b61006360201b60201c565b8060018190555050610186565b600033905090565b60008060009054906101000a900473ffffffffffffffffffffffffffffffffffffffff169050816000806101000a81548173ffffffffffffffffffffffffffffffffffffffff021916908373ffffffffffffffffffffffffffffffffffffffff1602179055508173ffffffffffffffffffffffffffffffffffffffff168173ffffffffffffffffffffffffffffffffffffffff167f8be0079c531659141344cd1fd0a4f28419497f9722a3daafe3b4186f6b6457e060405160405180910390a35050565b6000815190506101368161016f565b92915050565b60006020828403121561014e57600080fd5b600061015c84828501610127565b91505092915050565b6000819050919050565b61017881610165565b811461018357600080fd5b50565b610c25806101956000396000f3fe6080604052600436106100705760003560e01c80638da5cb5b1161004e5780638da5cb5b146100bf5780639af1d35a146100ea578063e97791e614610115578063f2fde38b1461014557610070565b8063476343ee14610075578063715018a61461007f57806378dacee114610096575b600080fd5b61007d61016e565b005b34801561008b57600080fd5b50610094610244565b005b3480156100a257600080fd5b506100bd60048036038101906100b891906107a7565b6102cc565b005b3480156100cb57600080fd5b506100d4610352565b6040516100e191906109e4565b60405180910390f35b3480156100f657600080fd5b506100ff61037b565b60405161010c9190610ad5565b60405180910390f35b61012f600480360381019061012a9190610758565b610385565b60405161013c91906109ff565b60405180910390f35b34801561015157600080fd5b5061016c6004803603810190610167919061072f565b6103e2565b005b6101766104da565b73ffffffffffffffffffffffffffffffffffffffff16610194610352565b73ffffffffffffffffffffffffffffffffffffffff16146101ea576040517f08c379a00000000000000000000000000000000000000000000000000000000081526004016101e190610a95565b60405180910390fd5b6101f2610352565b73ffffffffffffffffffffffffffffffffffffffff166108fc6001549081150290604051600060405180830381858888f19350505050158015610239573d6000803e3d6000fd5b506000600181905550565b61024c6104da565b73ffffffffffffffffffffffffffffffffffffffff1661026a610352565b73ffffffffffffffffffffffffffffffffffffffff16146102c0576040517f08c379a00000000000000000000000000000000000000000000000000000000081526004016102b790610a95565b60405180910390fd5b6102ca60006104e2565b565b6102d46104da565b73ffffffffffffffffffffffffffffffffffffffff166102f2610352565b73ffffffffffffffffffffffffffffffffffffffff1614610348576040517f08c379a000000000000000000000000000000000000000000000000000000000815260040161033f90610a95565b60405180910390fd5b8060018190555050565b60008060009054906101000a900473ffffffffffffffffffffffffffffffffffffffff16905090565b6000600154905090565b60006001543410156103cc576040517f08c379a00000000000000000000000000000000000000000000000000000000081526004016103c390610a35565b60405180910390fd5b6103d78484846105a6565b600190509392505050565b6103ea6104da565b73ffffffffffffffffffffffffffffffffffffffff16610408610352565b73ffffffffffffffffffffffffffffffffffffffff161461045e576040517f08c379a000000000000000000000000000000000000000000000000000000000815260040161045590610a95565b60405180910390fd5b600073ffffffffffffffffffffffffffffffffffffffff168173ffffffffffffffffffffffffffffffffffffffff1614156104ce576040517f08c379a00000000000000000000000000000000000000000000000000000000081526004016104c590610a75565b60405180910390fd5b6104d7816104e2565b50565b600033905090565b60008060009054906101000a900473ffffffffffffffffffffffffffffffffffffffff169050816000806101000a81548173ffffffffffffffffffffffffffffffffffffffff021916908373ffffffffffffffffffffffffffffffffffffffff1602179055508173ffffffffffffffffffffffffffffffffffffffff168173ffffffffffffffffffffffffffffffffffffffff167f8be0079c531659141344cd1fd0a4f28419497f9722a3daafe3b4186f6b6457e060405160405180910390a35050565b600073ffffffffffffffffffffffffffffffffffffffff168373ffffffffffffffffffffffffffffffffffffffff161415610616576040517f08c379a000000000000000000000000000000000000000000000000000000000815260040161060d90610a55565b60405180910390fd5b600073ffffffffffffffffffffffffffffffffffffffff168273ffffffffffffffffffffffffffffffffffffffff161415610686576040517f08c379a000000000000000000000000000000000000000000000000000000000815260040161067d90610ab5565b60405180910390fd5b8173ffffffffffffffffffffffffffffffffffffffff168373ffffffffffffffffffffffffffffffffffffffff167f880305f2e7443166fdfc156a42a10562577c8c28eef1246191c4cced846fec3f836040516106e39190610a1a565b60405180910390a3505050565b6000813590506106ff81610bb1565b92915050565b60008135905061071481610bc8565b92915050565b60008135905061072981610bd8565b92915050565b60006020828403121561074157600080fd5b600061074f848285016106f0565b91505092915050565b60008060006060848603121561076d57600080fd5b600061077b868287016106f0565b935050602061078c868287016106f0565b925050604061079d86828701610705565b9150509250925092565b6000602082840312156107b957600080fd5b60006107c78482850161071a565b91505092915050565b6107d981610b01565b82525050565b6107e881610b13565b82525050565b6107f781610b5c565b82525050565b600061080a602683610af0565b91507f44617070546f6f6c733a20696e73756666696369656e742066756e647320707260008301527f6f766964656400000000000000000000000000000000000000000000000000006020830152604082019050919050565b6000610870603483610af0565b91507f44617070546f6f6c733a20746f6b656e20636f6e74726163742063616e6e6f7460008301527f20686176652061207a65726f20616464726573730000000000000000000000006020830152604082019050919050565b60006108d6602683610af0565b91507f4f776e61626c653a206e6577206f776e657220697320746865207a65726f206160008301527f64647265737300000000000000000000000000000000000000000000000000006020830152604082019050919050565b600061093c602083610af0565b91507f4f776e61626c653a2063616c6c6572206973206e6f7420746865206f776e65726000830152602082019050919050565b600061097c602c83610af0565b91507f44617070546f6f6c733a206465706c6f7965722063616e6e6f7420626520612060008301527f7a65726f206164647265737300000000000000000000000000000000000000006020830152604082019050919050565b6109de81610b52565b82525050565b60006020820190506109f960008301846107d0565b92915050565b6000602082019050610a1460008301846107df565b92915050565b6000602082019050610a2f60008301846107ee565b92915050565b60006020820190508181036000830152610a4e816107fd565b9050919050565b60006020820190508181036000830152610a6e81610863565b9050919050565b60006020820190508181036000830152610a8e816108c9565b9050919050565b60006020820190508181036000830152610aae8161092f565b9050919050565b60006020820190508181036000830152610ace8161096f565b9050919050565b6000602082019050610aea60008301846109d5565b92915050565b600082825260208201905092915050565b6000610b0c82610b32565b9050919050565b60008115159050919050565b6000819050610b2d82610b9d565b919050565b600073ffffffffffffffffffffffffffffffffffffffff82169050919050565b6000819050919050565b6000610b6782610b1f565b9050919050565b7f4e487b7100000000000000000000000000000000000000000000000000000000600052602160045260246000fd5b60048110610bae57610bad610b6e565b5b50565b610bba81610b01565b8114610bc557600080fd5b50565b60048110610bd557600080fd5b50565b610be181610b52565b8114610bec57600080fd5b5056fea26469706673582212206b9cfb422731977d3795324ba29eb8b9cd3f9440e7335732f14050c6f987ee7e64736f6c63430008000033",
    "linkReferences": {},
    "deployedLinkReferences": {}
}